{
  "contractName": "DeadMansWallet",
  "abi": [
    {
      "inputs": [
        {
          "internalType": "uint256",
          "name": "_heartbeatTimeout",
          "type": "uint256"
        }
      ],
      "payable": false,
      "stateMutability": "nonpayable",
      "type": "constructor"
    },
    {
      "anonymous": false,
      "inputs": [
        {
          "indexed": true,
          "internalType": "address",
          "name": "owner",
          "type": "address"
        },
        {
          "indexed": true,
          "internalType": "address",
          "name": "newHeir",
          "type": "address"
        }
      ],
      "name": "HeirChanged",
      "type": "event"
    },
    {
      "anonymous": false,
      "inputs": [
        {
          "indexed": true,
          "internalType": "address",
          "name": "previousOwner",
          "type": "address"
        },
        {
          "indexed": true,
          "internalType": "address",
          "name": "newOwner",
          "type": "address"
        }
      ],
      "name": "HeirOwnershipClaimed",
      "type": "event"
    },
    {
      "anonymous": false,
      "inputs": [
        {
          "indexed": true,
          "internalType": "address",
          "name": "owner",
          "type": "address"
        }
      ],
      "name": "OwnerHeartbeated",
      "type": "event"
    },
    {
      "anonymous": false,
      "inputs": [
        {
          "indexed": true,
          "internalType": "address",
          "name": "owner",
          "type": "address"
        },
        {
          "indexed": true,
          "internalType": "address",
          "name": "heir",
          "type": "address"
        },
        {
          "indexed": false,
          "internalType": "uint256",
          "name": "timeOfDeath",
          "type": "uint256"
        }
      ],
      "name": "OwnerProclaimedDead",
      "type": "event"
    },
    {
      "anonymous": false,
      "inputs": [
        {
          "indexed": true,
          "internalType": "address",
          "name": "previousOwner",
          "type": "address"
        }
      ],
      "name": "OwnershipRenounced",
      "type": "event"
    },
    {
      "anonymous": false,
      "inputs": [
        {
          "indexed": true,
          "internalType": "address",
          "name": "previousOwner",
          "type": "address"
        },
        {
          "indexed": true,
          "internalType": "address",
          "name": "newOwner",
          "type": "address"
        }
      ],
      "name": "OwnershipTransferred",
      "type": "event"
    },
    {
      "anonymous": false,
      "inputs": [
        {
          "indexed": true,
          "internalType": "address",
          "name": "payer",
          "type": "address"
        },
        {
          "indexed": false,
          "internalType": "uint256",
          "name": "amount",
          "type": "uint256"
        },
        {
          "indexed": false,
          "internalType": "uint256",
          "name": "balance",
          "type": "uint256"
        }
      ],
      "name": "Received",
      "type": "event"
    },
    {
      "anonymous": false,
      "inputs": [
        {
          "indexed": true,
          "internalType": "address",
          "name": "payee",
          "type": "address"
        },
        {
          "indexed": false,
          "internalType": "uint256",
          "name": "amount",
          "type": "uint256"
        },
        {
          "indexed": false,
          "internalType": "uint256",
          "name": "balance",
          "type": "uint256"
        }
      ],
      "name": "Sent",
      "type": "event"
    },
    {
      "payable": true,
      "stateMutability": "payable",
      "type": "fallback"
    },
    {
      "constant": false,
      "inputs": [],
      "name": "claimHeirOwnership",
      "outputs": [],
      "payable": false,
      "stateMutability": "nonpayable",
      "type": "function"
    },
    {
      "constant": false,
      "inputs": [],
      "name": "heartbeat",
      "outputs": [],
      "payable": false,
      "stateMutability": "nonpayable",
      "type": "function"
    },
    {
      "constant": true,
      "inputs": [],
      "name": "heartbeatTimeout",
      "outputs": [
        {
          "internalType": "uint256",
          "name": "",
          "type": "uint256"
        }
      ],
      "payable": false,
      "stateMutability": "view",
      "type": "function"
    },
    {
      "constant": true,
      "inputs": [],
      "name": "heir",
      "outputs": [
        {
          "internalType": "address",
          "name": "",
          "type": "address"
        }
      ],
      "payable": false,
      "stateMutability": "view",
      "type": "function"
    },
    {
      "constant": true,
      "inputs": [],
      "name": "owner",
      "outputs": [
        {
          "internalType": "address",
          "name": "",
          "type": "address"
        }
      ],
      "payable": false,
      "stateMutability": "view",
      "type": "function"
    },
    {
      "constant": false,
      "inputs": [],
      "name": "proclaimDeath",
      "outputs": [],
      "payable": false,
      "stateMutability": "nonpayable",
      "type": "function"
    },
    {
      "constant": false,
      "inputs": [],
      "name": "removeHeir",
      "outputs": [],
      "payable": false,
      "stateMutability": "nonpayable",
      "type": "function"
    },
    {
      "constant": false,
      "inputs": [],
      "name": "renounceOwnership",
      "outputs": [],
      "payable": false,
      "stateMutability": "nonpayable",
      "type": "function"
    },
    {
      "constant": false,
      "inputs": [
        {
          "internalType": "address",
          "name": "newHeir",
          "type": "address"
        }
      ],
      "name": "setHeir",
      "outputs": [],
      "payable": false,
      "stateMutability": "nonpayable",
      "type": "function"
    },
    {
      "constant": true,
      "inputs": [],
      "name": "timeOfDeath",
      "outputs": [
        {
          "internalType": "uint256",
          "name": "",
          "type": "uint256"
        }
      ],
      "payable": false,
      "stateMutability": "view",
      "type": "function"
    },
    {
      "constant": false,
      "inputs": [
        {
          "internalType": "address",
          "name": "newOwner",
          "type": "address"
        }
      ],
      "name": "transferOwnership",
      "outputs": [],
      "payable": false,
      "stateMutability": "nonpayable",
      "type": "function"
    },
    {
      "constant": false,
      "inputs": [
        {
          "internalType": "address",
          "name": "payee",
          "type": "address"
        },
        {
          "internalType": "uint256",
          "name": "amount",
          "type": "uint256"
        }
      ],
      "name": "sendTo",
      "outputs": [],
      "payable": false,
      "stateMutability": "nonpayable",
      "type": "function"
    }
  ],
  "bytecode": "0x608060405234801561001057600080fd5b506040516116e53803806116e58339818101604052602081101561003357600080fd5b810190808051906020019092919050505080336000806101000a81548173ffffffffffffffffffffffffffffffffffffffff021916908373ffffffffffffffffffffffffffffffffffffffff160217905550610094816100dd60201b60201c565b6000600160006101000a81548173ffffffffffffffffffffffffffffffffffffffff021916908373ffffffffffffffffffffffffffffffffffffffff16021790555050506101fb565b6000809054906101000a900473ffffffffffffffffffffffffffffffffffffffff1673ffffffffffffffffffffffffffffffffffffffff163373ffffffffffffffffffffffffffffffffffffffff1614610182576040517f08c379a000000000000000000000000000000000000000000000000000000000815260040180806020018281038252602f8152602001806116b6602f913960400191505060405180910390fd5b6101906101ef60201b60201c565b6101e5576040517f08c379a00000000000000000000000000000000000000000000000000000000081526004018080602001828103825260308152602001806116866030913960400191505060405180910390fd5b8060028190555050565b60008060035414905090565b61147c8061020a6000396000f3fe6080604052600436106100a75760003560e01c80638da5cb5b116100645780638da5cb5b146101d757806391f2ebb81461022e5780639e1a00aa14610285578063b4a8f3e6146102e0578063ebf88de41461030b578063f2fde38b14610322576100a7565b80631c921e16146100ff57806323defc771461011657806324845131146101675780633defb9621461017e578063715018a6146101955780637bca38be146101ac575b3373ffffffffffffffffffffffffffffffffffffffff167f74cf3d18d0ddca79038197ad0dd2c7fa5005ef61a5d1ed190e8a8a437e2fcf103447604051808381526020018281526020019250505060405180910390a2005b34801561010b57600080fd5b50610114610373565b005b34801561012257600080fd5b506101656004803603602081101561013957600080fd5b81019080803573ffffffffffffffffffffffffffffffffffffffff1690602001909291905050506106be565b005b34801561017357600080fd5b5061017c6108ed565b005b34801561018a57600080fd5b50610193610aa3565b005b3480156101a157600080fd5b506101aa610bb6565b005b3480156101b857600080fd5b506101c1610d02565b6040518082815260200191505060405180910390f35b3480156101e357600080fd5b506101ec610d0c565b604051808273ffffffffffffffffffffffffffffffffffffffff1673ffffffffffffffffffffffffffffffffffffffff16815260200191505060405180910390f35b34801561023a57600080fd5b50610243610d31565b604051808273ffffffffffffffffffffffffffffffffffffffff1673ffffffffffffffffffffffffffffffffffffffff16815260200191505060405180910390f35b34801561029157600080fd5b506102de600480360360408110156102a857600080fd5b81019080803573ffffffffffffffffffffffffffffffffffffffff16906020019092919080359060200190929190505050610d5b565b005b3480156102ec57600080fd5b506102f5610fd5565b6040518082815260200191505060405180910390f35b34801561031757600080fd5b50610320610fdf565b005b34801561032e57600080fd5b506103716004803603602081101561034557600080fd5b81019080803573ffffffffffffffffffffffffffffffffffffffff1690602001909291905050506110d0565b005b600160009054906101000a900473ffffffffffffffffffffffffffffffffffffffff1673ffffffffffffffffffffffffffffffffffffffff163373ffffffffffffffffffffffffffffffffffffffff1614610419576040517f08c379a000000000000000000000000000000000000000000000000000000000815260040180806020018281038252602e8152602001806113b0602e913960400191505060405180910390fd5b6104216112b9565b15610477576040517f08c379a000000000000000000000000000000000000000000000000000000000815260040180806020018281038252603b8152602001806113de603b913960400191505060405180910390fd5b600254600354014210156104d6576040517f08c379a000000000000000000000000000000000000000000000000000000000815260040180806020018281038252606b815260200180611324606b913960800191505060405180910390fd5b600160009054906101000a900473ffffffffffffffffffffffffffffffffffffffff1673ffffffffffffffffffffffffffffffffffffffff166000809054906101000a900473ffffffffffffffffffffffffffffffffffffffff1673ffffffffffffffffffffffffffffffffffffffff167f8be0079c531659141344cd1fd0a4f28419497f9722a3daafe3b4186f6b6457e060405160405180910390a3600160009054906101000a900473ffffffffffffffffffffffffffffffffffffffff1673ffffffffffffffffffffffffffffffffffffffff166000809054906101000a900473ffffffffffffffffffffffffffffffffffffffff1673ffffffffffffffffffffffffffffffffffffffff167f1017a357e19071e4408dbd385f24e591aa5bcee52b444dc0c8abddbe6ad29de660405160405180910390a3600160009054906101000a900473ffffffffffffffffffffffffffffffffffffffff166000806101000a81548173ffffffffffffffffffffffffffffffffffffffff021916908373ffffffffffffffffffffffffffffffffffffffff16021790555060006003819055506000600160006101000a81548173ffffffffffffffffffffffffffffffffffffffff021916908373ffffffffffffffffffffffffffffffffffffffff160217905550565b6000809054906101000a900473ffffffffffffffffffffffffffffffffffffffff1673ffffffffffffffffffffffffffffffffffffffff163373ffffffffffffffffffffffffffffffffffffffff1614610763576040517f08c379a000000000000000000000000000000000000000000000000000000000815260040180806020018281038252602f815260200180611419602f913960400191505060405180910390fd5b6000809054906101000a900473ffffffffffffffffffffffffffffffffffffffff1673ffffffffffffffffffffffffffffffffffffffff168173ffffffffffffffffffffffffffffffffffffffff161415610826576040517f08c379a000000000000000000000000000000000000000000000000000000000815260040180806020018281038252601e8152602001807f6f776e65722063616e6e6f742062652068656972206f6620697473656c66000081525060200191505060405180910390fd5b61082e610aa3565b8073ffffffffffffffffffffffffffffffffffffffff166000809054906101000a900473ffffffffffffffffffffffffffffffffffffffff1673ffffffffffffffffffffffffffffffffffffffff167f4e6093f85fa64484abd692810d8a44d508792ff7b7a021d9fbd69fa1c6ff18a060405160405180910390a380600160006101000a81548173ffffffffffffffffffffffffffffffffffffffff021916908373ffffffffffffffffffffffffffffffffffffffff16021790555050565b600160009054906101000a900473ffffffffffffffffffffffffffffffffffffffff1673ffffffffffffffffffffffffffffffffffffffff163373ffffffffffffffffffffffffffffffffffffffff1614610993576040517f08c379a000000000000000000000000000000000000000000000000000000000815260040180806020018281038252602e8152602001806113b0602e913960400191505060405180910390fd5b61099b6112b9565b6109f0576040517f08c379a00000000000000000000000000000000000000000000000000000000081526004018080602001828103825260338152602001806112c66033913960400191505060405180910390fd5b600160009054906101000a900473ffffffffffffffffffffffffffffffffffffffff1673ffffffffffffffffffffffffffffffffffffffff166000809054906101000a900473ffffffffffffffffffffffffffffffffffffffff1673ffffffffffffffffffffffffffffffffffffffff167f66389f1f3251c39e71cb18351daefea45bda23e98df0767266b8aed4ff9382776003546040518082815260200191505060405180910390a342600381905550565b6000809054906101000a900473ffffffffffffffffffffffffffffffffffffffff1673ffffffffffffffffffffffffffffffffffffffff163373ffffffffffffffffffffffffffffffffffffffff1614610b48576040517f08c379a000000000000000000000000000000000000000000000000000000000815260040180806020018281038252602f815260200180611419602f913960400191505060405180910390fd5b6000809054906101000a900473ffffffffffffffffffffffffffffffffffffffff1673ffffffffffffffffffffffffffffffffffffffff167fd40b9d9a7572411aff4bbb95ba7bd9a9d4e9b70747ec46f8fe7913c309b6845260405160405180910390a26000600381905550565b6000809054906101000a900473ffffffffffffffffffffffffffffffffffffffff1673ffffffffffffffffffffffffffffffffffffffff163373ffffffffffffffffffffffffffffffffffffffff1614610c5b576040517f08c379a000000000000000000000000000000000000000000000000000000000815260040180806020018281038252602f815260200180611419602f913960400191505060405180910390fd5b6000809054906101000a900473ffffffffffffffffffffffffffffffffffffffff1673ffffffffffffffffffffffffffffffffffffffff167ff8df31144d9c2f0f6b59d69b8b98abd5459d07f2742c4df920b25aae33c6482060405160405180910390a260008060006101000a81548173ffffffffffffffffffffffffffffffffffffffff021916908373ffffffffffffffffffffffffffffffffffffffff160217905550565b6000600254905090565b6000809054906101000a900473ffffffffffffffffffffffffffffffffffffffff1681565b6000600160009054906101000a900473ffffffffffffffffffffffffffffffffffffffff16905090565b6000809054906101000a900473ffffffffffffffffffffffffffffffffffffffff1673ffffffffffffffffffffffffffffffffffffffff163373ffffffffffffffffffffffffffffffffffffffff1614610e00576040517f08c379a000000000000000000000000000000000000000000000000000000000815260040180806020018281038252602f815260200180611419602f913960400191505060405180910390fd5b600073ffffffffffffffffffffffffffffffffffffffff168273ffffffffffffffffffffffffffffffffffffffff1614158015610e6957503073ffffffffffffffffffffffffffffffffffffffff168273ffffffffffffffffffffffffffffffffffffffff1614155b610ebe576040517f08c379a000000000000000000000000000000000000000000000000000000000815260040180806020018281038252602b8152602001806112f9602b913960400191505060405180910390fd5b60008111610f34576040517f08c379a00000000000000000000000000000000000000000000000000000000081526004018080602001828103825260208152602001807f616d6f756e74206d7573742062652067726561746572207468616e207a65726f81525060200191505060405180910390fd5b8173ffffffffffffffffffffffffffffffffffffffff166108fc829081150290604051600060405180830381858888f19350505050158015610f7a573d6000803e3d6000fd5b508173ffffffffffffffffffffffffffffffffffffffff167f6356739d963da01dc3533acba7203430fcc14f2175d48a8dd0973d7db49c785e8247604051808381526020018281526020019250505060405180910390a25050565b6000600354905090565b6000809054906101000a900473ffffffffffffffffffffffffffffffffffffffff1673ffffffffffffffffffffffffffffffffffffffff163373ffffffffffffffffffffffffffffffffffffffff1614611084576040517f08c379a000000000000000000000000000000000000000000000000000000000815260040180806020018281038252602f815260200180611419602f913960400191505060405180910390fd5b61108c610aa3565b6000600160006101000a81548173ffffffffffffffffffffffffffffffffffffffff021916908373ffffffffffffffffffffffffffffffffffffffff160217905550565b6000809054906101000a900473ffffffffffffffffffffffffffffffffffffffff1673ffffffffffffffffffffffffffffffffffffffff163373ffffffffffffffffffffffffffffffffffffffff1614611175576040517f08c379a000000000000000000000000000000000000000000000000000000000815260040180806020018281038252602f815260200180611419602f913960400191505060405180910390fd5b600073ffffffffffffffffffffffffffffffffffffffff168173ffffffffffffffffffffffffffffffffffffffff1614156111fb576040517f08c379a000000000000000000000000000000000000000000000000000000000815260040180806020018281038252602181526020018061138f6021913960400191505060405180910390fd5b8073ffffffffffffffffffffffffffffffffffffffff166000809054906101000a900473ffffffffffffffffffffffffffffffffffffffff1673ffffffffffffffffffffffffffffffffffffffff167f8be0079c531659141344cd1fd0a4f28419497f9722a3daafe3b4186f6b6457e060405160405180910390a3806000806101000a81548173ffffffffffffffffffffffffffffffffffffffff021916908373ffffffffffffffffffffffffffffffffffffffff16021790555050565b6000806003541490509056fe546865206f776e6572206d757374206265206c6976696e67206265666f72652064656174682069732070726f636c61696d656472656365697665722063616e6e6f7420626520766f6964206f7220746865206f776e657220697473656c6661746c656173742068656172746265617454696d656f75745f20616d6f756e74206f662074696d65206d757374206861766520706173736564206265747765656e2070726f636c61696d65642064656174682074696d6520616e64206f776e65727368697020636c61696d6e6577206f776e657220616464726573732063616e206e6f74206265206e756c6c4f6e6c792068656972206f662074686520636f6e74726163742063616e2063616c6c2074686973206d6574686f646f776e6572206d7573742062652070726f636c61696d65642064656164206265666f726520636c61696d696e6720746865206f776e6572736869704f6e6c79206f776e6572206f662074686520636f6e74726163742063616e2063616c6c2074686973206d6574686f64a265627a7a7231582011562e5b396ca44c2775bf4e1a3eee9b8f8ec8a534f7d4cbc060a37d7bf16d8b64736f6c634300051000324f776e6572206d75737420626520616c69766520746f20736574206e65772068656172746e6561742074696d656f75744f6e6c79206f776e6572206f662074686520636f6e74726163742063616e2063616c6c2074686973206d6574686f64",
  "source": "pragma solidity ^0.5.0;\n\n\ncontract Ownable {\n    address public owner;\n\n    event OwnershipTransferred(\n        address indexed previousOwner,\n        address indexed newOwner\n    );\n    event OwnershipRenounced(address indexed previousOwner);\n\n    // sets the original `owner` of the contract to the sender\n    constructor() public {\n        owner = msg.sender;\n    }\n\n    // throws if called by any account other than the owner\n    modifier onlyOwner() {\n        require(msg.sender == owner, \"Only owner of the contract can call this method\");\n        _;\n    }\n\n    // allows the current owner to transfer control of the contract to a newOwner\n    function transferOwnership(address newOwner) public onlyOwner {\n        require(newOwner != address(0), \"new owner address can not be null\");                               // black-hole check\n        emit OwnershipTransferred(owner, newOwner);\n        owner = newOwner;                                                                                   // change owner\n    }\n\n    // allows the current owner to renounce control of the contract.\n    function renounceOwnership() public onlyOwner {\n        emit OwnershipRenounced(owner);\n        owner = address(0);                                                                                 // set owner as void\n    }\n}\n\n\ncontract Heritable is Ownable {\n    address private heir_;\n\n    // time window in which the owner must notify they are not dead\n    uint private heartbeatTimeout_;\n\n    // time of the owner's death as given by the heir.\n    uint private timeOfDeath_;\n\n    event HeirChanged(address indexed owner, address indexed newHeir);\n    event OwnerHeartbeated(address indexed owner);\n    event OwnerProclaimedDead(\n        address indexed owner,\n        address indexed heir,\n        uint timeOfDeath\n    );\n    event HeirOwnershipClaimed(\n        address indexed previousOwner,\n        address indexed newOwner\n    );\n\n\n    // throws if called by any account other than the heir\n    modifier onlyHeir() {\n    require(msg.sender == heir_, \"Only heir of the contract can call this method\");\n    _;\n    }\n\n\n    // constructor creates the contract with the given heartbeat timeout and sets the default heir as void\n    constructor(uint _heartbeatTimeout) public {\n        setHeartbeatTimeout(_heartbeatTimeout);\n        heir_ = address(0);\n    }\n\n    // set the heir of the contract\n    function setHeir(address newHeir) public onlyOwner {\n        require(newHeir != owner, \"owner cannot be heir of itself\");\n        heartbeat();\n        emit HeirChanged(owner, newHeir);\n        heir_ = newHeir;\n    }\n\n    // returns the heir of the contract\n    function heir() public view returns(address) {\n        return heir_;\n    }\n\n    // returns the current heartbeat timeout\n    function heartbeatTimeout() public view returns(uint) {\n        return heartbeatTimeout_;\n    }\n\n    // returns the time of death of the owner\n    function timeOfDeath() public view returns(uint) {\n        return timeOfDeath_;\n    }\n\n    // sets the heir to point to void\n    function removeHeir() public onlyOwner {\n        heartbeat();\n        heir_ = address(0);\n    }\n\n    // the heir can proclaim the owner's death. To claim the ownership, they will have to wait for `heartbeatTimeout` seconds.\n    function proclaimDeath() public onlyHeir {\n        require(ownerLives(), \"The owner must be living before death is proclaimed\");\n        emit OwnerProclaimedDead(owner, heir_, timeOfDeath_);\n        timeOfDeath_ = now;\n    }\n\n    // send a heartbeat to verify that the owner is still alive\n    function heartbeat() public onlyOwner {\n        emit OwnerHeartbeated(owner);\n        timeOfDeath_ = 0;\n    }\n\n    // Allows the heir to transfer ownership (only if heartbeat has timed out)\n    function claimHeirOwnership() public onlyHeir {\n        require(!ownerLives(), \"owner must be proclaimed dead before claiming the ownership\");\n        \n        require(now >= timeOfDeath_ + heartbeatTimeout_, \"atleast heartbeatTimeout_ amount of time must have passed between proclaimed death time and ownership claim\");\n        emit OwnershipTransferred(owner, heir_);\n        emit HeirOwnershipClaimed(owner, heir_);\n        owner = heir_;\n        timeOfDeath_ = 0;\n        heir_ = address(0);\n    }\n\n    // change the heartbeatTimeout\n    function setHeartbeatTimeout(uint newHeartbeatTimeout) internal onlyOwner {\n        require(ownerLives(), \"Owner must be alive to set new heartneat timeout\");\n        heartbeatTimeout_ = newHeartbeatTimeout;\n    }\n\n    // returns owner's living status\n    function ownerLives() internal view returns (bool) {\n        return timeOfDeath_ == 0;\n    }\n}\n\n\ncontract DeadMansWallet is Heritable {\n    event Sent(address indexed payee, uint amount, uint balance);\n    event Received(address indexed payer, uint amount, uint balance);\n\n    constructor(uint _heartbeatTimeout) Heritable(_heartbeatTimeout) public {}\n\n    // wallet can receive funds\n    function () external payable {\n        emit Received(msg.sender, msg.value, address(this).balance);\n    }\n\n    // wallet can send funds\n    function sendTo(address payee, uint amount) public onlyOwner {\n        require(payee != address(0) && payee != address(this), \"receiver cannot be void or the owner itself\");\n        require(amount > 0, \"amount must be greater than zero\");\n        address(uint160(payee)).transfer(amount);\n        emit Sent(payee, amount, address(this).balance);\n    }\n}",
  "sourcePath": "/home/anuj/Desktop/eth_india_fellowship/week2/deadman/dead_man_s_switch/contracts/DeadMansSwitch.sol",
  "compiler": {
    "name": "solc",
    "version": "0.5.16+commit.9c3226ce.Emscripten.clang"
  },
  "schemaVersion": "3.2.0",
  "updatedAt": "2020-06-20T05:04:16.009Z",
  "devdoc": {
    "methods": {}
  },
  "userdoc": {
    "methods": {}
  }
}